{
  "contractName": "TransactionStorageContract",
  "abi": [
    {
      "anonymous": false,
      "inputs": [
        {
          "indexed": true,
          "internalType": "address",
          "name": "_from",
          "type": "address"
        },
        {
          "indexed": false,
          "internalType": "uint256",
          "name": "_timestamp",
          "type": "uint256"
        },
        {
          "indexed": false,
          "internalType": "uint256",
          "name": "_UAN",
          "type": "uint256"
        },
        {
          "components": [
            {
              "internalType": "string",
              "name": "personalDetails",
              "type": "string"
            },
            {
              "internalType": "string",
              "name": "personalSubDetails",
              "type": "string"
            },
            {
              "internalType": "string",
              "name": "permanentAddress",
              "type": "string"
            },
            {
              "internalType": "string",
              "name": "currentAddress",
              "type": "string"
            },
            {
              "internalType": "string",
              "name": "workingDetails",
              "type": "string"
            }
          ],
          "indexed": false,
          "internalType": "struct TransactionStorageContract.RecordStorageVariable",
          "name": "_record",
          "type": "tuple"
        }
      ],
      "name": "TransactionEventVariable",
      "type": "event"
    },
    {
      "inputs": [],
      "name": "CountTransaction",
      "outputs": [
        {
          "internalType": "uint256",
          "name": "",
          "type": "uint256"
        }
      ],
      "stateMutability": "view",
      "type": "function",
      "constant": true
    },
    {
      "inputs": [
        {
          "internalType": "uint256",
          "name": "_UAN",
          "type": "uint256"
        },
        {
          "internalType": "string",
          "name": "_personalDetails",
          "type": "string"
        },
        {
          "internalType": "string",
          "name": "_personalSubDetails",
          "type": "string"
        },
        {
          "internalType": "string",
          "name": "_permanentAddress",
          "type": "string"
        },
        {
          "internalType": "string",
          "name": "_currentAddress",
          "type": "string"
        },
        {
          "internalType": "string",
          "name": "_workingDetails",
          "type": "string"
        }
      ],
      "name": "TransactionEventEntryEdit",
      "outputs": [],
      "stateMutability": "nonpayable",
      "type": "function"
    },
    {
      "inputs": [
        {
          "internalType": "uint256",
          "name": "_UAN",
          "type": "uint256"
        },
        {
          "internalType": "string",
          "name": "_personalDetails",
          "type": "string"
        },
        {
          "internalType": "string",
          "name": "_personalSubDetails",
          "type": "string"
        },
        {
          "internalType": "string",
          "name": "_permanentAddress",
          "type": "string"
        },
        {
          "internalType": "string",
          "name": "_currentAddress",
          "type": "string"
        },
        {
          "internalType": "string",
          "name": "_workingDetails",
          "type": "string"
        }
      ],
      "name": "TransactionEventEntry",
      "outputs": [],
      "stateMutability": "nonpayable",
      "type": "function"
    },
    {
      "inputs": [
        {
          "internalType": "uint256",
          "name": "_index",
          "type": "uint256"
        }
      ],
      "name": "FetchSpecificTransaction",
      "outputs": [
        {
          "internalType": "address",
          "name": "",
          "type": "address"
        },
        {
          "internalType": "uint256",
          "name": "",
          "type": "uint256"
        },
        {
          "internalType": "uint256",
          "name": "",
          "type": "uint256"
        },
        {
          "internalType": "string",
          "name": "",
          "type": "string"
        },
        {
          "internalType": "string",
          "name": "",
          "type": "string"
        },
        {
          "internalType": "string",
          "name": "",
          "type": "string"
        },
        {
          "internalType": "string",
          "name": "",
          "type": "string"
        },
        {
          "internalType": "string",
          "name": "",
          "type": "string"
        }
      ],
      "stateMutability": "view",
      "type": "function",
      "constant": true
    },
    {
      "inputs": [
        {
          "internalType": "uint256",
          "name": "_UAN",
          "type": "uint256"
        }
      ],
      "name": "FetchSpecificRecords",
      "outputs": [
        {
          "internalType": "string",
          "name": "",
          "type": "string"
        },
        {
          "internalType": "string",
          "name": "",
          "type": "string"
        },
        {
          "internalType": "string",
          "name": "",
          "type": "string"
        },
        {
          "internalType": "string",
          "name": "",
          "type": "string"
        },
        {
          "internalType": "string",
          "name": "",
          "type": "string"
        }
      ],
      "stateMutability": "view",
      "type": "function",
      "constant": true
    },
    {
      "inputs": [],
      "name": "AllTransactions",
      "outputs": [
        {
          "internalType": "address[]",
          "name": "",
          "type": "address[]"
        },
        {
          "internalType": "uint256[]",
          "name": "",
          "type": "uint256[]"
        },
        {
          "internalType": "uint256[]",
          "name": "",
          "type": "uint256[]"
        },
        {
          "internalType": "string[]",
          "name": "",
          "type": "string[]"
        },
        {
          "internalType": "string[]",
          "name": "",
          "type": "string[]"
        },
        {
          "internalType": "string[]",
          "name": "",
          "type": "string[]"
        },
        {
          "internalType": "string[]",
          "name": "",
          "type": "string[]"
        },
        {
          "internalType": "string[]",
          "name": "",
          "type": "string[]"
        }
      ],
      "stateMutability": "view",
      "type": "function",
      "constant": true
    }
  ],
  "bytecode": "0x608060405234801561001057600080fd5b5061271a806100206000396000f3fe608060405234801561001057600080fd5b50600436106100625760003560e01c80630802a40c1461006757806330360d531461008c578063390620f8146100aa5780637f618a4d146100c65780638173b028146100fa578063e51abefe14610131575b600080fd5b61006f61014d565b604051610083989796959493929190611b06565b60405180910390f35b610094610970565b6040516100a19190611bcb565b60405180910390f35b6100c460048036038101906100bf9190611d5b565b61097c565b005b6100e060048036038101906100db9190611e74565b610c80565b6040516100f1959493929190611eeb565b60405180910390f35b610114600480360381019061010f9190611e74565b6110bf565b604051610128989796959493929190611f70565b60405180910390f35b61014b60048036038101906101469190611d5b565b6114f3565b005b6060806060806060806060806000808054905067ffffffffffffffff81111561017957610178611c30565b5b6040519080825280602002602001820160405280156101a75781602001602082028036833780820191505090505b5090506000808054905067ffffffffffffffff8111156101ca576101c9611c30565b5b6040519080825280602002602001820160405280156101f85781602001602082028036833780820191505090505b5090506000808054905067ffffffffffffffff81111561021b5761021a611c30565b5b6040519080825280602002602001820160405280156102495781602001602082028036833780820191505090505b5090506000808054905067ffffffffffffffff81111561026c5761026b611c30565b5b60405190808252806020026020018201604052801561029f57816020015b606081526020019060019003908161028a5790505b5090506000808054905067ffffffffffffffff8111156102c2576102c1611c30565b5b6040519080825280602002602001820160405280156102f557816020015b60608152602001906001900390816102e05790505b5090506000808054905067ffffffffffffffff81111561031857610317611c30565b5b60405190808252806020026020018201604052801561034b57816020015b60608152602001906001900390816103365790505b5090506000808054905067ffffffffffffffff81111561036e5761036d611c30565b5b6040519080825280602002602001820160405280156103a157816020015b606081526020019060019003908161038c5790505b5090506000808054905067ffffffffffffffff8111156103c4576103c3611c30565b5b6040519080825280602002602001820160405280156103f757816020015b60608152602001906001900390816103e25790505b50905060005b600080549050811015610945576000818154811061041e5761041d612011565b5b906000526020600020906008020160000160009054906101000a900473ffffffffffffffffffffffffffffffffffffffff1689828151811061046357610462612011565b5b602002602001019073ffffffffffffffffffffffffffffffffffffffff16908173ffffffffffffffffffffffffffffffffffffffff1681525050600081815481106104b1576104b0612011565b5b9060005260206000209060080201600101548882815181106104d6576104d5612011565b5b602002602001018181525050600081815481106104f6576104f5612011565b5b90600052602060002090600802016002015487828151811061051b5761051a612011565b5b6020026020010181815250506000818154811061053b5761053a612011565b5b9060005260206000209060080201600301600001805461055a9061206f565b80601f01602080910402602001604051908101604052809291908181526020018280546105869061206f565b80156105d35780601f106105a8576101008083540402835291602001916105d3565b820191906000526020600020905b8154815290600101906020018083116105b657829003601f168201915b50505050508682815181106105eb576105ea612011565b5b60200260200101819052506000818154811061060a57610609612011565b5b906000526020600020906008020160030160010180546106299061206f565b80601f01602080910402602001604051908101604052809291908181526020018280546106559061206f565b80156106a25780601f10610677576101008083540402835291602001916106a2565b820191906000526020600020905b81548152906001019060200180831161068557829003601f168201915b50505050508582815181106106ba576106b9612011565b5b6020026020010181905250600081815481106106d9576106d8612011565b5b906000526020600020906008020160030160020180546106f89061206f565b80601f01602080910402602001604051908101604052809291908181526020018280546107249061206f565b80156107715780601f1061074657610100808354040283529160200191610771565b820191906000526020600020905b81548152906001019060200180831161075457829003601f168201915b505050505084828151811061078957610788612011565b5b6020026020010181905250600081815481106107a8576107a7612011565b5b906000526020600020906008020160030160030180546107c79061206f565b80601f01602080910402602001604051908101604052809291908181526020018280546107f39061206f565b80156108405780601f1061081557610100808354040283529160200191610840565b820191906000526020600020905b81548152906001019060200180831161082357829003601f168201915b505050505083828151811061085857610857612011565b5b60200260200101819052506000818154811061087757610876612011565b5b906000526020600020906008020160030160040180546108969061206f565b80601f01602080910402602001604051908101604052809291908181526020018280546108c29061206f565b801561090f5780601f106108e45761010080835404028352916020019161090f565b820191906000526020600020905b8154815290600101906020018083116108f257829003601f168201915b505050505082828151811061092757610926612011565b5b6020026020010181905250808061093d906120cf565b9150506103fd565b5087878787878787879f509f509f509f509f509f509f509f5050505050505050509091929394959697565b60008080549050905090565b6000805b6000805490508110156109d55787600082815481106109a2576109a1612011565b5b906000526020600020906008020160020154036109c257600191506109d5565b80806109cd906120cf565b915050610980565b5080610a16576040517f08c379a0000000000000000000000000000000000000000000000000000000008152600401610a0d90612189565b60405180910390fd5b6040518060a0016040528087815260200186815260200185815260200184815260200183815250600160008981526020019081526020016000206000820151816000019081610a659190612355565b506020820151816001019081610a7b9190612355565b506040820151816002019081610a919190612355565b506060820151816003019081610aa79190612355565b506080820151816004019081610abd9190612355565b5090505060006040518060a00160405280888152602001878152602001868152602001858152602001848152509050600060405180608001604052803373ffffffffffffffffffffffffffffffffffffffff1681526020014281526020018a815260200183815250908060018154018082558091505060019003906000526020600020906008020160009091909190915060008201518160000160006101000a81548173ffffffffffffffffffffffffffffffffffffffff021916908373ffffffffffffffffffffffffffffffffffffffff16021790555060208201518160010155604082015181600201556060820151816003016000820151816000019081610bc79190612355565b506020820151816001019081610bdd9190612355565b506040820151816002019081610bf39190612355565b506060820151816003019081610c099190612355565b506080820151816004019081610c1f9190612355565b50505050503373ffffffffffffffffffffffffffffffffffffffff167f7b20a85bd3bc11742037013bba53b1c52d9ef6d9446f10e4212bd093bf9671eb428a84604051610c6e939291906124b9565b60405180910390a25050505050505050565b606080606080606060006001600080549050610c9c91906124f7565b90505b6000811061107a578660008281548110610cbc57610cbb612011565b5b906000526020600020906008020160020154036110675760008181548110610ce757610ce6612011565b5b906000526020600020906008020160030160000160008281548110610d0f57610d0e612011565b5b906000526020600020906008020160030160010160008381548110610d3757610d36612011565b5b906000526020600020906008020160030160020160008481548110610d5f57610d5e612011565b5b906000526020600020906008020160030160030160008581548110610d8757610d86612011565b5b9060005260206000209060080201600301600401848054610da79061206f565b80601f0160208091040260200160405190810160405280929190818152602001828054610dd39061206f565b8015610e205780601f10610df557610100808354040283529160200191610e20565b820191906000526020600020905b815481529060010190602001808311610e0357829003601f168201915b50505050509450838054610e339061206f565b80601f0160208091040260200160405190810160405280929190818152602001828054610e5f9061206f565b8015610eac5780601f10610e8157610100808354040283529160200191610eac565b820191906000526020600020905b815481529060010190602001808311610e8f57829003601f168201915b50505050509350828054610ebf9061206f565b80601f0160208091040260200160405190810160405280929190818152602001828054610eeb9061206f565b8015610f385780601f10610f0d57610100808354040283529160200191610f38565b820191906000526020600020905b815481529060010190602001808311610f1b57829003601f168201915b50505050509250818054610f4b9061206f565b80601f0160208091040260200160405190810160405280929190818152602001828054610f779061206f565b8015610fc45780601f10610f9957610100808354040283529160200191610fc4565b820191906000526020600020905b815481529060010190602001808311610fa757829003601f168201915b50505050509150808054610fd79061206f565b80601f01602080910402602001604051908101604052809291908181526020018280546110039061206f565b80156110505780601f1061102557610100808354040283529160200191611050565b820191906000526020600020905b81548152906001019060200180831161103357829003601f168201915b5050505050905095509550955095509550506110b6565b80806110729061252b565b915050610c9f565b506040517f08c379a00000000000000000000000000000000000000000000000000000000081526004016110ad906125c6565b60405180910390fd5b91939590929450565b600080600060608060608060606000805490508910611113576040517f08c379a000000000000000000000000000000000000000000000000000000000815260040161110a90612632565b60405180910390fd5b6000808a8154811061112857611127612011565b5b90600052602060002090600802016040518060800160405290816000820160009054906101000a900473ffffffffffffffffffffffffffffffffffffffff1673ffffffffffffffffffffffffffffffffffffffff1673ffffffffffffffffffffffffffffffffffffffff1681526020016001820154815260200160028201548152602001600382016040518060a00160405290816000820180546111cb9061206f565b80601f01602080910402602001604051908101604052809291908181526020018280546111f79061206f565b80156112445780601f1061121957610100808354040283529160200191611244565b820191906000526020600020905b81548152906001019060200180831161122757829003601f168201915b5050505050815260200160018201805461125d9061206f565b80601f01602080910402602001604051908101604052809291908181526020018280546112899061206f565b80156112d65780601f106112ab576101008083540402835291602001916112d6565b820191906000526020600020905b8154815290600101906020018083116112b957829003601f168201915b505050505081526020016002820180546112ef9061206f565b80601f016020809104026020016040519081016040528092919081815260200182805461131b9061206f565b80156113685780601f1061133d57610100808354040283529160200191611368565b820191906000526020600020905b81548152906001019060200180831161134b57829003601f168201915b505050505081526020016003820180546113819061206f565b80601f01602080910402602001604051908101604052809291908181526020018280546113ad9061206f565b80156113fa5780601f106113cf576101008083540402835291602001916113fa565b820191906000526020600020905b8154815290600101906020018083116113dd57829003601f168201915b505050505081526020016004820180546114139061206f565b80601f016020809104026020016040519081016040528092919081815260200182805461143f9061206f565b801561148c5780601f106114615761010080835404028352916020019161148c565b820191906000526020600020905b81548152906001019060200180831161146f57829003601f168201915b5050505050815250508152505090508060000151816020015182604001518360600151600001518460600151602001518560600151604001518660600151606001518760600151608001519850985098509850985098509850985050919395975091939597565b60006001905060005b60008054905081101561155157876000828154811061151e5761151d612011565b5b9060005260206000209060080201600201540361153e5760009150611551565b8080611549906120cf565b9150506114fc565b5080611592576040517f08c379a0000000000000000000000000000000000000000000000000000000008152600401611589906126c4565b60405180910390fd5b6040518060a00160405280878152602001868152602001858152602001848152602001838152506001600089815260200190815260200160002060008201518160000190816115e19190612355565b5060208201518160010190816115f79190612355565b50604082015181600201908161160d9190612355565b5060608201518160030190816116239190612355565b5060808201518160040190816116399190612355565b5090505060006040518060a00160405280888152602001878152602001868152602001858152602001848152509050600060405180608001604052803373ffffffffffffffffffffffffffffffffffffffff1681526020014281526020018a815260200183815250908060018154018082558091505060019003906000526020600020906008020160009091909190915060008201518160000160006101000a81548173ffffffffffffffffffffffffffffffffffffffff021916908373ffffffffffffffffffffffffffffffffffffffff160217905550602082015181600101556040820151816002015560608201518160030160008201518160000190816117439190612355565b5060208201518160010190816117599190612355565b50604082015181600201908161176f9190612355565b5060608201518160030190816117859190612355565b50608082015181600401908161179b9190612355565b50505050503373ffffffffffffffffffffffffffffffffffffffff167f7b20a85bd3bc11742037013bba53b1c52d9ef6d9446f10e4212bd093bf9671eb428a846040516117ea939291906124b9565b60405180910390a25050505050505050565b600081519050919050565b600082825260208201905092915050565b6000819050602082019050919050565b600073ffffffffffffffffffffffffffffffffffffffff82169050919050565b600061185382611828565b9050919050565b61186381611848565b82525050565b6000611875838361185a565b60208301905092915050565b6000602082019050919050565b6000611899826117fc565b6118a38185611807565b93506118ae83611818565b8060005b838110156118df5781516118c68882611869565b97506118d183611881565b9250506001810190506118b2565b5085935050505092915050565b600081519050919050565b600082825260208201905092915050565b6000819050602082019050919050565b6000819050919050565b61192b81611918565b82525050565b600061193d8383611922565b60208301905092915050565b6000602082019050919050565b6000611961826118ec565b61196b81856118f7565b935061197683611908565b8060005b838110156119a757815161198e8882611931565b975061199983611949565b92505060018101905061197a565b5085935050505092915050565b600081519050919050565b600082825260208201905092915050565b6000819050602082019050919050565b600081519050919050565b600082825260208201905092915050565b60005b83811015611a1a5780820151818401526020810190506119ff565b60008484015250505050565b6000601f19601f8301169050919050565b6000611a42826119e0565b611a4c81856119eb565b9350611a5c8185602086016119fc565b611a6581611a26565b840191505092915050565b6000611a7c8383611a37565b905092915050565b6000602082019050919050565b6000611a9c826119b4565b611aa681856119bf565b935083602082028501611ab8856119d0565b8060005b85811015611af45784840389528151611ad58582611a70565b9450611ae083611a84565b925060208a01995050600181019050611abc565b50829750879550505050505092915050565b6000610100820190508181036000830152611b21818b61188e565b90508181036020830152611b35818a611956565b90508181036040830152611b498189611956565b90508181036060830152611b5d8188611a91565b90508181036080830152611b718187611a91565b905081810360a0830152611b858186611a91565b905081810360c0830152611b998185611a91565b905081810360e0830152611bad8184611a91565b90509998505050505050505050565b611bc581611918565b82525050565b6000602082019050611be06000830184611bbc565b92915050565b6000604051905090565b600080fd5b600080fd5b611c0381611918565b8114611c0e57600080fd5b50565b600081359050611c2081611bfa565b92915050565b600080fd5b600080fd5b7f4e487b7100000000000000000000000000000000000000000000000000000000600052604160045260246000fd5b611c6882611a26565b810181811067ffffffffffffffff82111715611c8757611c86611c30565b5b80604052505050565b6000611c9a611be6565b9050611ca68282611c5f565b919050565b600067ffffffffffffffff821115611cc657611cc5611c30565b5b611ccf82611a26565b9050602081019050919050565b82818337600083830152505050565b6000611cfe611cf984611cab565b611c90565b905082815260208101848484011115611d1a57611d19611c2b565b5b611d25848285611cdc565b509392505050565b600082601f830112611d4257611d41611c26565b5b8135611d52848260208601611ceb565b91505092915050565b60008060008060008060c08789031215611d7857611d77611bf0565b5b6000611d8689828a01611c11565b965050602087013567ffffffffffffffff811115611da757611da6611bf5565b5b611db389828a01611d2d565b955050604087013567ffffffffffffffff811115611dd457611dd3611bf5565b5b611de089828a01611d2d565b945050606087013567ffffffffffffffff811115611e0157611e00611bf5565b5b611e0d89828a01611d2d565b935050608087013567ffffffffffffffff811115611e2e57611e2d611bf5565b5b611e3a89828a01611d2d565b92505060a087013567ffffffffffffffff811115611e5b57611e5a611bf5565b5b611e6789828a01611d2d565b9150509295509295509295565b600060208284031215611e8a57611e89611bf0565b5b6000611e9884828501611c11565b91505092915050565b600082825260208201905092915050565b6000611ebd826119e0565b611ec78185611ea1565b9350611ed78185602086016119fc565b611ee081611a26565b840191505092915050565b600060a0820190508181036000830152611f058188611eb2565b90508181036020830152611f198187611eb2565b90508181036040830152611f2d8186611eb2565b90508181036060830152611f418185611eb2565b90508181036080830152611f558184611eb2565b90509695505050505050565b611f6a81611848565b82525050565b600061010082019050611f86600083018b611f61565b611f93602083018a611bbc565b611fa06040830189611bbc565b8181036060830152611fb28188611eb2565b90508181036080830152611fc68187611eb2565b905081810360a0830152611fda8186611eb2565b905081810360c0830152611fee8185611eb2565b905081810360e08301526120028184611eb2565b90509998505050505050505050565b7f4e487b7100000000000000000000000000000000000000000000000000000000600052603260045260246000fd5b7f4e487b7100000000000000000000000000000000000000000000000000000000600052602260045260246000fd5b6000600282049050600182168061208757607f821691505b60208210810361209a57612099612040565b5b50919050565b7f4e487b7100000000000000000000000000000000000000000000000000000000600052601160045260246000fd5b60006120da82611918565b91507fffffffffffffffffffffffffffffffffffffffffffffffffffffffffffffffff820361210c5761210b6120a0565b5b600182019050919050565b7f556e6976657273616c204163636f756e74204e756d626572206973206e6f742060008201527f70726573656e7420696e20746865206461746162617365000000000000000000602082015250565b6000612173603783611ea1565b915061217e82612117565b604082019050919050565b600060208201905081810360008301526121a281612166565b9050919050565b60008190508160005260206000209050919050565b60006020601f8301049050919050565b600082821b905092915050565b60006008830261220b7fffffffffffffffffffffffffffffffffffffffffffffffffffffffffffffffff826121ce565b61221586836121ce565b95508019841693508086168417925050509392505050565b6000819050919050565b600061225261224d61224884611918565b61222d565b611918565b9050919050565b6000819050919050565b61226c83612237565b61228061227882612259565b8484546121db565b825550505050565b600090565b612295612288565b6122a0818484612263565b505050565b5b818110156122c4576122b960008261228d565b6001810190506122a6565b5050565b601f821115612309576122da816121a9565b6122e3846121be565b810160208510156122f2578190505b6123066122fe856121be565b8301826122a5565b50505b505050565b600082821c905092915050565b600061232c6000198460080261230e565b1980831691505092915050565b6000612345838361231b565b9150826002028217905092915050565b61235e826119e0565b67ffffffffffffffff81111561237757612376611c30565b5b612381825461206f565b61238c8282856122c8565b600060209050601f8311600181146123bf57600084156123ad578287015190505b6123b78582612339565b86555061241f565b601f1984166123cd866121a9565b60005b828110156123f5578489015182556001820191506020850194506020810190506123d0565b86831015612412578489015161240e601f89168261231b565b8355505b6001600288020188555050505b505050505050565b600060a08301600083015184820360008601526124448282611a37565b9150506020830151848203602086015261245e8282611a37565b915050604083015184820360408601526124788282611a37565b915050606083015184820360608601526124928282611a37565b915050608083015184820360808601526124ac8282611a37565b9150508091505092915050565b60006060820190506124ce6000830186611bbc565b6124db6020830185611bbc565b81810360408301526124ed8184612427565b9050949350505050565b600061250282611918565b915061250d83611918565b9250828203905081811115612525576125246120a0565b5b92915050565b600061253682611918565b915060008203612549576125486120a0565b5b600182039050919050565b7f5265636f7264206e6f7420666f756e6420666f722074686520676976656e205560008201527f414e000000000000000000000000000000000000000000000000000000000000602082015250565b60006125b0602283611ea1565b91506125bb82612554565b604082019050919050565b600060208201905081810360008301526125df816125a3565b9050919050565b7f4e6f205472616e73616374696f6e73204d616465000000000000000000000000600082015250565b600061261c601483611ea1565b9150612627826125e6565b602082019050919050565b6000602082019050818103600083015261264b8161260f565b9050919050565b7f556e6976657273616c204163636f756e74204e756d62657220697320616c726560008201527f6164792050726573656e7420696e207468652064617461626173650000000000602082015250565b60006126ae603b83611ea1565b91506126b982612652565b604082019050919050565b600060208201905081810360008301526126dd816126a1565b905091905056fea26469706673582212204966185337c0b40406289d6b8e771e4185d3f6725a4067468ec85ebfac59fd4164736f6c63430008130033",
  "immutableReferences": {},
  "source": "// SPDX-License-Identifier: MIT\r\npragma solidity ^0.8.9;\r\n/*\r\n    struct personalDetails {\r\n        string name;\r\n        string fatherName;\r\n        string dateOfBirth;\r\n        string gender;\r\n        string bloodType;\r\n        string mobileNumber;\r\n    }\r\n\r\n    struct personalSubDetails {\r\n        string pWd;\r\n        string category;\r\n        string Minority;\r\n        string materialStatus;\r\n        string identityType;\r\n        string identitynumber;\r\n    }\r\n\r\n    struct permanentAddressDetails {\r\n        string locality;\r\n        string state;\r\n        string city;\r\n        string district;\r\n        string pincode;\r\n    }\r\n\r\n    struct currentAddressDetails {\r\n        string locality;\r\n        string state;\r\n        string city;\r\n        string district;\r\n        string pincode;\r\n    }\r\n\r\n    struct workingDetails {\r\n        string occupation;\r\n        uint256 mobileNumber;\r\n        string state;\r\n        string city;\r\n    }\r\n\r\n*/\r\n\r\ncontract TransactionStorageContract {\r\n    event TransactionEventVariable(\r\n        address indexed _from,\r\n        uint256 _timestamp,\r\n        uint256 _UAN,\r\n        RecordStorageVariable _record\r\n    );\r\n\r\n    struct RecordStorageVariable {\r\n        string personalDetails;\r\n        string personalSubDetails;\r\n        string permanentAddress;\r\n        string currentAddress;\r\n        string workingDetails;\r\n    }\r\n\r\n    struct TransactionVariables {\r\n        address user;\r\n        uint256 timestamp;\r\n        uint256 UAN; //Universal Account Number\r\n        RecordStorageVariable record;\r\n    }\r\n\r\n    TransactionVariables[] TransactionArray;\r\n\r\n    function CountTransaction() public view returns (uint256) {\r\n        return TransactionArray.length;\r\n    }\r\n\r\n    mapping(uint256 => RecordStorageVariable) RecordDataConnector;\r\n\r\n    function TransactionEventEntryEdit(\r\n        uint256 _UAN,\r\n        string memory _personalDetails,\r\n        string memory _personalSubDetails,\r\n        string memory _permanentAddress,\r\n        string memory _currentAddress,\r\n        string memory _workingDetails\r\n    ) public {\r\n        bool found = false;\r\n        for (uint256 i = 0; i < TransactionArray.length; i++) {\r\n            if (TransactionArray[i].UAN == _UAN) {\r\n                found = true;\r\n                break;\r\n            }\r\n        }\r\n        require(\r\n            found,\r\n            \"Universal Account Number is not present in the database\"\r\n        );\r\n        RecordDataConnector[_UAN] = RecordStorageVariable(\r\n            _personalDetails,\r\n            _personalSubDetails,\r\n            _permanentAddress,\r\n            _currentAddress,\r\n            _workingDetails\r\n        );\r\n        RecordStorageVariable memory record = RecordStorageVariable(\r\n            _personalDetails,\r\n            _personalSubDetails,\r\n            _permanentAddress,\r\n            _currentAddress,\r\n            _workingDetails\r\n        );\r\n        TransactionArray.push(\r\n            TransactionVariables(msg.sender, block.timestamp, _UAN, record)\r\n        );\r\n        emit TransactionEventVariable(\r\n            msg.sender,\r\n            block.timestamp,\r\n            _UAN,\r\n            record\r\n        );\r\n    }\r\n\r\n    function TransactionEventEntry(\r\n        uint256 _UAN,\r\n        string memory _personalDetails,\r\n        string memory _personalSubDetails,\r\n        string memory _permanentAddress,\r\n        string memory _currentAddress,\r\n        string memory _workingDetails\r\n    ) public {\r\n        bool found = true;\r\n        for (uint256 i = 0; i < TransactionArray.length; i++) {\r\n            if (TransactionArray[i].UAN == _UAN) {\r\n                found = false;\r\n                break;\r\n            }\r\n        }\r\n        require(\r\n            found,\r\n            \"Universal Account Number is already Present in the database\"\r\n        );\r\n\r\n        RecordDataConnector[_UAN] = RecordStorageVariable(\r\n            _personalDetails,\r\n            _personalSubDetails,\r\n            _permanentAddress,\r\n            _currentAddress,\r\n            _workingDetails\r\n        );\r\n        RecordStorageVariable memory record = RecordStorageVariable(\r\n            _personalDetails,\r\n            _personalSubDetails,\r\n            _permanentAddress,\r\n            _currentAddress,\r\n            _workingDetails\r\n        );\r\n        TransactionArray.push(\r\n            TransactionVariables(msg.sender, block.timestamp, _UAN, record)\r\n        );\r\n        emit TransactionEventVariable(\r\n            msg.sender,\r\n            block.timestamp,\r\n            _UAN,\r\n            record\r\n        );\r\n    }\r\n\r\n    function FetchSpecificTransaction(\r\n        uint256 _index\r\n    )\r\n        public\r\n        view\r\n        returns (\r\n            address,\r\n            uint256,\r\n            uint256,\r\n            string memory,\r\n            string memory,\r\n            string memory,\r\n            string memory,\r\n            string memory\r\n        )\r\n    {\r\n        require(_index < TransactionArray.length, \"No Transactions Made\");\r\n        TransactionVariables memory transaction = TransactionArray[_index];\r\n        return (\r\n            transaction.user,\r\n            transaction.timestamp,\r\n            transaction.UAN,\r\n            transaction.record.personalDetails,\r\n            transaction.record.personalSubDetails,\r\n            transaction.record.permanentAddress,\r\n            transaction.record.currentAddress,\r\n            transaction.record.workingDetails\r\n        );\r\n    }\r\n\r\n    function FetchSpecificRecords(\r\n        uint256 _UAN\r\n    )\r\n        public\r\n        view\r\n        returns (\r\n            string memory,\r\n            string memory,\r\n            string memory,\r\n            string memory,\r\n            string memory\r\n        )\r\n    {\r\n        for (uint256 i = TransactionArray.length - 1; i >= 0; i--) {\r\n            if (TransactionArray[i].UAN == _UAN) {\r\n                return (\r\n                    TransactionArray[i].record.personalDetails,\r\n                    TransactionArray[i].record.personalSubDetails,\r\n                    TransactionArray[i].record.permanentAddress,\r\n                    TransactionArray[i].record.currentAddress,\r\n                    TransactionArray[i].record.workingDetails\r\n                );\r\n            }\r\n        }\r\n        revert(\"Record not found for the given UAN\"); // Revert if no record is found for the given UAN\r\n    }\r\n\r\n    function AllTransactions()\r\n        public\r\n        view\r\n        returns (\r\n            address[] memory,\r\n            uint256[] memory,\r\n            uint256[] memory,\r\n            string[] memory,\r\n            string[] memory,\r\n            string[] memory,\r\n            string[] memory,\r\n            string[] memory\r\n        )\r\n    {\r\n        address[] memory users = new address[](TransactionArray.length);\r\n        uint256[] memory timestamps = new uint256[](TransactionArray.length);\r\n        uint256[] memory UANs = new uint256[](TransactionArray.length);\r\n        string[] memory PersonalDetails = new string[](TransactionArray.length);\r\n        string[] memory PersonalSubDetails = new string[](\r\n            TransactionArray.length\r\n        );\r\n        string[] memory PermanentAddress = new string[](\r\n            TransactionArray.length\r\n        );\r\n        string[] memory CurrentAddress = new string[](TransactionArray.length);\r\n        string[] memory WorkingDetails = new string[](TransactionArray.length);\r\n\r\n        for (uint256 i = 0; i < TransactionArray.length; i++) {\r\n            users[i] = TransactionArray[i].user;\r\n            timestamps[i] = TransactionArray[i].timestamp;\r\n            UANs[i] = TransactionArray[i].UAN;\r\n            PersonalDetails[i] = TransactionArray[i].record.personalDetails;\r\n            PersonalSubDetails[i] = TransactionArray[i]\r\n                .record\r\n                .personalSubDetails;\r\n            PermanentAddress[i] = TransactionArray[i].record.permanentAddress;\r\n            CurrentAddress[i] = TransactionArray[i].record.currentAddress;\r\n            WorkingDetails[i] = TransactionArray[i].record.workingDetails;\r\n        }\r\n\r\n        return (\r\n            users,\r\n            timestamps,\r\n            UANs,\r\n            PersonalDetails,\r\n            PersonalSubDetails,\r\n            PermanentAddress,\r\n            CurrentAddress,\r\n            WorkingDetails\r\n        );\r\n    }\r\n}\r\n",
  "sourcePath": "C:\\Users\\Asus\\Desktop\\work\\project\\1\\record_managing_portal\\contracts\\TransactionStorageContract.sol",
  "compiler": {
    "name": "solc",
    "version": "0.8.19+commit.7dd6d404.Emscripten.clang"
  },
  "schemaVersion": "3.4.16",
  "updatedAt": "2024-04-19T13:33:01.169Z",
  "networkType": "ethereum",
  "devdoc": {
    "kind": "dev",
    "methods": {},
    "version": 1
  },
  "userdoc": {
    "kind": "user",
    "methods": {},
    "version": 1
  }
}